:020000040800F2
:10000000B0290020650200086D0200086F02000898
:100010007102000873020008750200080000000069
:10002000000000000000000000000000770200084F
:1000300079020008000000007B0200087D02000831
:100040007F0200087F0200087F0200087F0200088C
:100050007F0200087F02000809040008210400084C
:10006000390400087F0200087F0200087F020008B0
:100070007F0200087F0200087F0200087F0200085C
:100080007F0200087F0200087F0200087F0200084C
:100090007F0200087F0200087F0200087F0200083C
:1000A0007F0200087F0200087F0200087F0200082C
:1000B0007F020008D50800081D0900087F0200081B
:1000C0007F0200087F0200087F0200087F0200080C
:1000D0007F0200087F0200087F020008C90A0008AA
:1000E0007F0200087F0200087F0200087F020008EC
:1000F0007F0200087F0200087F0200087F020008DC
:100100007F0200087F0200087F0200087F020008CB
:100110007F0200087F0200087F0200087F020008BB
:100120007F0200087F0200087F0200087F020008AB
:100130007F02000800000000000000007F020008AD
:100140007F0200087F0200087F0200087F0200088B
:100150007F0200087F0200087F0200087F0200087B
:100160007F0200087F0200087F0200087F0200086B
:100170007F0200087F0200087F02000800000000E4
:10018000000000007F0200080000000000000000E6
:100190007F02000800000000000000007F0200084D
:1001A0000000000000000000000000007F020008C6
:1001B0007F0200087F0200087F0200087F0200081B
:1001C0007F02000800F002F800F03CF80AA090E876
:1001D000000C82448344AAF10107DA4501D100F002
:1001E00031F8AFF2090EBAE80F0013F0010F18BF93
:1001F000FB1A43F001031847442D0000642D000052
:10020000103A24BF78C878C1FAD8520724BF30C842
:1002100030C144BF04680C60704700000023002414
:1002200000250026103A28BF78C1FBD8520728BF06
:1002300030C148BF0B6070471FB502F0C0FC1FBD46
:1002400010B510BD00F058F81146FFF7F5FF01F0AA
:10025000E3FC00F076F803B4FFF7F2FF03BC00F014
:100260007DF800000948804709480047FEE7FEE79F
:10027000FEE7FEE7FEE7FEE7FEE7FEE7FEE7FEE756
:1002800004480549054A064B704700006508000808
:10029000C5010008B0230020B0290020B0250020AF
:1002A000B02500204FF0000200B513469446964654
:1002B000203922BFA0E80C50A0E80C50B1F1200179
:1002C000BFF4F7AF090728BFA0E80C5048BF0CC027
:1002D0005DF804EB890028BF40F8042B08BF704785
:1002E00048BF20F8022B11F0804F18BF00F8012BF7
:1002F0007047704770477047754600F02BF8AE4660
:1003000005006946534620F00700854618B020B521
:10031000FFF7B6FFBDE820404FF000064FF00007A2
:100320004FF000084FF0000BAC46ACE8C009ACE859
:10033000C009ACE8C009ACE8C00921F007018D464E
:10034000704710B50446AFF300802046BDE810406A
:10035000FFF781BF00487047500000200149182076
:10036000ABBEFEE7260002007047000043F64400E3
:10037000C4F20200016841F48071016042F2080099
:10038000C4F20100C16A41F00601C162016841F096
:10039000010101607047000043F63000C4F2020022
:1003A000016841F400110160016841F480010160BD
:1003B00046F2580044F60401C4F20200C4F20001FF
:1003C0008160026801F5484142F48062026002687F
:1003D00042F040020260026842F000620260C0F82F
:1003E0006814D0F8601441F48061C0F86014D0F84B
:1003F000601441F04001C0F86014D0F8601441F07E
:100400000061C0F86014704742F66041C0F6000118
:1004100043F614408968C4F20100012202600847D3
:1004200042F66041C0F6000143F614408968C4F208
:10043000010002220260084742F66041C0F6000156
:1004400043F614408968C4F20100042202600847A0
:1004500043F64400C4F20200016841F480410160A7
:1004600043F60800C4F2010001680160D0F80014EE
:1004700041F00101C0F8001443F60C41C4F201013F
:100480000A6842F001020A6001228A60D0F8F8236B
:1004900042F00102C0F8F82302680260D0F800249C
:1004A00042F00202C0F800240A6842F002020A6028
:1004B00002228A60D0F8F82342F00202C0F8F82342
:1004C00002680260D0F8002442F00402C0F8002460
:1004D0000A6842F004020A6004228A60D0F8F81325
:1004E00041F00401C0F8F8137047000043F60040E3
:1004F000C4F20200016841F005010160016841F4A5
:1005000080710160016841F400710160016841F48B
:10051000806101607047000043F63000C4F20200C1
:10052000016841F001010160016841F002010160D0
:10053000016841F0040101600020C4F2020001687A
:100540000160C16841F00201C16001680160C168D9
:1005500041F00801C16001680160C16841F02001FB
:10056000C160016841F0C0010160016841F440715F
:100570000160016841F440610160016841F440514B
:100580000160016841F400310160416841608168A7
:1005900041F440318160C168C160416A41F00101AC
:1005A0004162016841F40021016041684160816855
:1005B00041F440218160C168C160416A41F010018D
:1005C0004162016841F40011016041684160816845
:1005D00041F440118160C168C160416A41F4807199
:1005E0004162D0F8001441F00061C0F8001440F2FC
:1005F0000441C4F202010A680A604A6842F040629B
:100600004A608A688A600A6A42F480120A62D0F8F4
:10061000002442F00052C0F800240A680A604A68C8
:1006200042F040524A608A688A600A6A42F08072E8
:100630000A62D0F8002442F00042C0F800240A68A0
:100640000A604A6842F040424A608A688A600A6AE0
:1006500042F080520A62D0F8002442F40052C0F8FE
:1006600000240A680A604A6842F440524A608A6874
:1006700042F400528A60CA6942F0E062CA61D0F86E
:10068000002442F40042C0F800240868086048686A
:1006900040F440404860886840F400408860C86981
:1006A00040F0E040C861D1F8FC0340F40010C1F80C
:1006B000FC03D1F80004C1F8000440F60800C4F2BD
:1006C0000200026842F440120260426842F40012E2
:1006D0004260C26942F4E062C261D1F8FC2342F494
:1006E0000002C1F8FC23D1F80024C1F800240268FC
:1006F00042F440020260426842F400024260C26971
:1007000042F4E042C261D1F8FC2342F08062C1F8B9
:10071000FC23D1F80024C1F80024026842F04062B2
:100720000260426842F000624260D1F8FC2342F06D
:100730008052C1F8FC23D1F80024C1F800240268DB
:1007400042F040520260426842F000524260D1F8EA
:10075000FC2342F08042C1F8FC23D1F80024C1F808
:100760000024016841F040410160416841F00041CE
:10077000416070474EF20010CEF20000402101604F
:10078000802101604FF48072026041607047000078
:1007900043F60400C4F2020050F8041C41F4803116
:1007A00040F8041C50F8041C89035CBF50F8041C7A
:1007B0005FEA813107D450F8041C890303D450F850
:1007C000041C8903EED5016847F6C07221F480014C
:1007D0000160016841F480010160016821F03F017E
:1007E0000160016841F00901016001689143016005
:1007F000016841F448510160016821F44031016011
:100800000168016050F8041C41F0807140F8041C3C
:1008100050F8041C89010CD450F8041C89015CBFF9
:1008200050F8041C5FEA811103D450F8041C8901BC
:10083000EED5416821F4E0514160416841F4A05196
:100840004160416821F460414160416841F40041E8
:100850004160416821F003014160416841F00201BB
:10086000416070474EF68850CEF2000001684FF0AC
:10087000000C41F47001016043F60001C4F2020172
:100880000A6842F001020A60C1F808C00B684FF61E
:10089000FF72CFF6F6621A400A6043F21002C2F20B
:1008A00000424A600A6822F480220A60C1F80CC043
:1008B0004FF0006140F8801C704700004EF21000BD
:1008C000CEF200004FF0FF314160816005210160F0
:1008D0007047000010B542F66041C0F6000140F2DA
:1008E000104009699FED0C0AC4F200000024046066
:1008F00004600460884742F28430C2F20000046061
:1009000040F24800C2F20000012101602020C4F240
:100910000100046010BD00BF0000000040F61000A0
:10092000C4F200000021016042F28430C2F20000F3
:1009300090ED000A40F2C800C2F20000017842F6D1
:10094000C44201EB4101C0F60002515C9FED1B2A3D
:1009500001EE101AB8EE411A20EE020A20EE011A3A
:100960003421BCEEC11AC4F2010181ED021A0378F0
:1009700003EB430313445B7801EE103AB8EE411ADF
:1009800020EE011ABCEEC11A81ED001A037803EBC8
:1009900043031A44927801EE102AB8EE411A20EE71
:1009A000010ABCEEC00A81ED010A01780131017033
:1009B0000178C02928BF4031017070478180803B99
:1009C00010B543F64000C4F202004168182241F01D
:1009D00001014160C4F201020121116141F6FF01F0
:1009E0004FF0000C5161C2F81CC0136840F2FF3197
:1009F00043F06003136013684FF62C4E43F0080376
:100A00001360C2F820C01368CFF6FF7E43F4C043E2
:100A10001360136843F400631360C2F824C0536882
:100A200043F060035360536843F008035360D36A94
:100A300043F0A603D362D36A43F40043D36252F86F
:100A4000183C43F0010342F8183C02684FF6284373
:100A500042F00102026040F20042CFF6FF73C4F29E
:100A60000002D1500F2342F80E304FF08043196836
:100A700041F0010119600168632341F00401016044
:100A800040F60001C4F200018B62C1F82CC0CC68B2
:100A900044F00104CC600C6844F001040C6004686C
:100AA00044F0020404604FF6FF709362C2F824C061
:100AB00041F80E00D06840F00100D060106840F0AE
:100AC0000100106010BD000044F60400C4F20000F4
:100AD00000682F2801D93A2809D342F67440C0F69D
:100AE0000000016A42F62570C0F60000084742F691
:100AF00060413038C0F60001096800EE100AB8EE17
:100B0000400A084743F64000C4F20200416832221E
:100B100041F01001416041F20C01C4F2010141F8C1
:100B2000042C0A6842F008020A608A6842F08002D7
:100B30008A600A6842F400520A60016841F4802128
:100B4000016044F60C00C4F2000041F2D54140F8C7
:100B5000041C016841F008010160016841F00401D2
:100B60000160016841F020010160816841F080016D
:100B70008160016841F40051016070472DE9F04344
:100B800081B042F60847C0F6000739680446884736
:100B900038B146F20C46C4F202060546D6F8B0005B
:100BA00010B101B0BDE8F08341F20008C4F20108C1
:100BB000D8F800000006F4D5D7E903192046884785
:100BC0002F1A204698BF2F46C847616822690844FB
:100BD00008F10401C6F8B070C6F8B410C6F8B80041
:100BE000306840F000603060D6F8AC0040F00100A2
:100BF000C6F8AC00D019206101B0BDE8F083000058
:100C00002DE9F04381B042F60847C0F60007396885
:100C10000446884730B146F20806C4F2020605468B
:100C2000706D10B101B0BDE8F08344F60008C4F265
:100C30000008D8F800000006F4D5D7E903192046CB
:100C400088472F1A204698BF2F46C84761682269F7
:100C5000084408F104017765B165F065306840F03B
:100C600000603060306D40F001003065D0192061C7
:100C700001B0BDE8F083000080B51020C4F202008E
:100C8000006810F0070165D0072908BF80BD40F259
:100C9000C80EC2F2000EDEF804204EF6EF6C531CB4
:100CA000CEF6EE6C03FB0CF248F688004FEA7202B7
:100CB000C0F688008242CEF8043009D840F614000D
:100CC000C4F20200026882F400520260DEF80430CE
:100CD00003FB0CF044F244424FEAB000C0F244423D
:100CE000904240F22402C4F2000216D81068DEF8E6
:100CF000083000EB8000C3EB400000EE100A9FEDCF
:100D0000161AB8EE400A81EE000A106800EB800067
:100D10004000CEF808008EED030A0023D2F800044C
:100D2000C2F80034C2F800380CA340F62C02595C1B
:100D30004009C4F2000210608EF800109EF8000016
:100D400006308EF800009EF80000C02828BF403012
:100D50008EF8000080BD00BF0024744900A0200070
:100D60006080400040F2C800C2F2000090ED030A2B
:100D700070470000C1680161704700002DE9F04F25
:100D800081B00446C06822690092821A4DD00D4697
:100D900042F67441C0F60001D1F820B042F69C4101
:100DA000DDF80080C0F60001D1F82490A8EB000126
:100DB00001F1010A08F10101404521610AD100BF9A
:100DC000A1680844E06042F60A70C0F60000D84707
:100DD0002068C847A0686268B8FBF0F101FB10808A
:100DE0002969175CD5E90206711A721C8142EA6012
:100DF00008D342F61770C0F600002E61D847286865
:100E0000C847A868B6FBF0F16A6801FB1060BAF148
:100E1000000F175409D0D4E903080AF1010A08F1B8
:100E2000010140452161CBD0D4E70098206101B099
:100E3000BDE8F08FD0E90310081A70478168006997
:100E4000B0FBF1F202FB110070470000D0E9021084
:100E5000B0FBF1F202FB110070470000B0B5044690
:100E6000D0E90305691CA842216113D1A06842F6AC
:100E700074412844C0F60001096AE06042F60A7035
:100E8000C0F60000884742F69C40C0F60000416A68
:100E900020688847A0686268B5FBF0F101FB10503C
:100EA0001056B0BD2DE9F04381B00446D0E90305EA
:100EB00042F6744942F69C486E1CA842C0F60009EE
:100EC000C0F6000826610FD1A068D9F82010284488
:100ED000E06042F60A70C0F600008847D8F8241097
:100EE00020688847D4E90306A1686268B5FBF1F37E
:100EF00040F2683703FB1153C2F20007D35C751C44
:100F0000B0423B70256110D10844D9F82010E06050
:100F100042F60A70C0F600008847D8F8241020680E
:100F20008847D4E90121D4E90305B6FBF1F3A842CF
:100F300003FB116305F10106D35C26617B7010D1C0
:100F40000844D9F82010E06042F60A70C0F60000AC
:100F50008847D8F8241020688847D4E90121D4E9CB
:100F60000306B5FBF1F3B04203FB115306F1010593
:100F7000D35C2561BB7010D10844D9F82010E06023
:100F800042F60A70C0F600008847D8F8241020689E
:100F90008847D4E90121D4E90305B6FBF1F3A8425F
:100FA00003FB116305F10106D35C2661FB7010D1D0
:100FB0000844D9F82010E06042F60A70C0F600003C
:100FC0008847D8F8241020688847D4E90121D4E95B
:100FD0000306B5FBF1F3B04203FB115306F1010523
:100FE000D35C25613B7110D10844D9F82010E06032
:100FF00042F60A70C0F600008847D8F8241020682E
:101000008847D4E90121D4E90305B6FBF1F3A842EE
:1010100003FB116305F10106D35C26617B7110D1DE
:101020000844D9F82010E06042F60A70C0F60000CB
:101030008847D8F8241020688847D4E90121D4E9EA
:101040000306B5FBF1F3B04203FB1153D35CBB7154
:1010500006F1010323610ED10844D9F82010E060A5
:1010600042F60A70C0F600008847D8F824102068BD
:101070008847D4E90121B6FBF1F000FB1160105C58
:10108000F87197EC020A01B0BDE8F0832DE9F04356
:1010900081B00446D0E9030542F6744942F69C4803
:1010A0006E1CA842C0F60009C0F6000826610FD1E8
:1010B000A068D9F820102844E06042F60A70C0F613
:1010C00000008847D8F8241020688847D4E9030630
:1010D000A1686268B5FBF1F340F2703703FB11536E
:1010E000C2F20007D35C751CB0423B70256110D181
:1010F0000844D9F82010E06042F60A70C0F60000FB
:101100008847D8F8241020688847D4E90121D4E919
:101110000305B6FBF1F3A84203FB116305F10106D9
:10112000D35C26617B7010D10844D9F82010E060B0
:1011300042F60A70C0F600008847D8F824102068EC
:101140008847D4E90121D4E90306B5FBF1F3B042A5
:1011500003FB1153D35CBB7006F1010323610ED175
:101160000844D9F82010E06042F60A70C0F600008A
:101170008847D8F8241020688847D4E90121B6FBB5
:10118000F1F000FB1160105CF87097ED000A01B0FF
:10119000BDE8F0832DE9F04381B00446D0E90305B2
:1011A00042F6744942F69C486E1CA842C0F60009FB
:1011B000C0F6000826610FD1A068D9F82010284495
:1011C000E06042F60A70C0F600008847D8F82410A4
:1011D00020688847D4E90306A1686268B5FBF1F38B
:1011E00040F2743703FB1153C2F20007D35C751C45
:1011F000B0423B70256110D10844D9F82010E0605E
:1012000042F60A70C0F600008847D8F8241020681B
:101210008847D4E90121D4E90305B6FBF1F3A842DC
:1012200003FB116305F10106D35C26617B7010D1CD
:101230000844D9F82010E06042F60A70C0F60000B9
:101240008847D8F8241020688847D4E90121D4E9D8
:101250000306B5FBF1F3B04203FB1153D35CBB7043
:1012600006F1010323610ED10844D9F82010E06093
:1012700042F60A70C0F600008847D8F824102068AB
:101280008847D4E90121B6FBF1F000FB1160105C46
:10129000F870386801B0BDE8F08300002DE9F04136
:1012A0000446D0E9030642F6744742F69C48751C92
:1012B000B042C0F60007C0F6000825610ED1A06854
:1012C000396A3044E06042F60A70C0F60000884790
:1012D000D8F8241020688847D4E90305A16862681B
:1012E000B6FBF1F3A84203FB116340F27836D35CFE
:1012F000C2F20006337005F1010323610DD10844E9
:10130000396AE06042F60A70C0F600008847D8F8F3
:10131000241020688847D4E90121B5FBF1F000FBD7
:101320001150105C7070B6F90000BDE8F08100004B
:10133000B0B50446D0E90305691CA842216113D168
:10134000A06842F674412844C0F60001096AE060D2
:1013500042F60A70C0F60000884742F69C40C0F68C
:101360000000416A20688847A0686268B5FBF0F118
:1013700001FB1050105CB0BD2DE9F04381B0044674
:10138000D0E9030542F6744942F69C486E1CA84217
:10139000C0F60009C0F6000826610FD1A068D9F890
:1013A00020102844E06042F60A70C0F6000088472A
:1013B000D8F8241020688847D4E90306A168626839
:1013C000B5FBF1F340F27C3703FB1153C2F2000787
:1013D000D35C751CB0423B70256110D10844D9F82C
:1013E0002010E06042F60A70C0F600008847D8F886
:1013F000241020688847D4E90121D4E90305B6FB0D
:10140000F1F3A84203FB116305F10106D35C2661E9
:101410007B7010D10844D9F82010E06042F60A70C1
:10142000C0F600008847D8F8241020688847D4E91F
:101430000121D4E90306B5FBF1F3B04203FB1153DC
:10144000D35CBB7006F1010323610ED10844D9F8C7
:101450002010E06042F60A70C0F600008847D8F815
:10146000241020688847D4E90121B6FBF1F000FB85
:101470001160105CF870386801B0BDE8F0830000BE
:101480002DE9F0410446D0E9030642F6744742F6DE
:101490009C48751CB042C0F60007C0F600082561E4
:1014A0000ED1A068396A3044E06042F60A70C0F696
:1014B00000008847D8F8241020688847D4E903053D
:1014C000A1686268B6FBF1F3A84203FB116340F226
:1014D0008036D35CC2F20006337005F1010323614C
:1014E0000DD10844396AE06042F60A70C0F6000087
:1014F0008847D8F8241020688847D4E90121B5FB33
:10150000F1F000FB1150105C70703088BDE8F08184
:1015100070B505460C46D5E903618068711A721CE6
:101520008142EA6012D342F67440C0F60000016ABC
:1015300042F61770C0F600002E61884742F69C40C4
:10154000C0F60000416A28688847A868B6FBF0F139
:101550006A6801FB1060145470BD00002DE9F0436F
:1015600081B02DED028B0446D4E903518068691ADD
:1015700042F6744942F69C48B0EE608A10EE107A4A
:101580006A1C8142C0F60009C0F60008E2600CD374
:10159000D9F8201042F61770C0F600002561884780
:1015A000D8F8241020688847A068B5FBF0F162687D
:1015B00001FB10503D0A1754D4E902062169721C40
:1015C000711A8142E2600CD3D9F8201042F61770EC
:1015D000C0F6000026618847D8F8241020688847A4
:1015E000A068B6FBF0F1626801FB10601554D4E905
:1015F000020621693D0C711A721C8142E2600CD313
:10160000D9F8201042F61770C0F60000266188470E
:10161000D8F8241020688847A068B6FBF0F162680B
:1016200001FB10601554D4E9020621693D0E711AC0
:10163000721C8142E2600CD3D9F8201042F6177078
:10164000C0F6000026618847D8F824102068884733
:10165000A068B6FBF0F1626801FB106018EE107A2A
:101660001554D4E9020521696A1C691A8142E260B5
:101670000CD3D9F8201042F61770C0F6000025618F
:101680008847D8F8241020688847A068B5FBF0F197
:10169000626801FB10503D0A1754D4E90206216923
:1016A000721C711A8142E2600CD3D9F8201042F604
:1016B0001770C0F6000026618847D8F8241020680B
:1016C0008847A068B6FBF0F1626801FB1060155412
:1016D000D4E9020621693D0C711A721C8142E26054
:1016E0000CD3D9F8201042F61770C0F6000026611E
:1016F0008847D8F8241020688847A068B6FBF0F126
:10170000626801FB10601554D4E9020621693D0EA0
:10171000711A721C8142E2600CD3D9F8201042F693
:101720001770C0F6000026618847D8F8241020689A
:101730008847A068B6FBF0F1626801FB10601554A1
:10174000BDEC028B01B0BDE8F08300002DE9F04351
:1017500081B00446D4E903518068691A42F674499D
:1017600042F69C4810EE107A6A1C8142C0F60009CD
:10177000C0F60008E2600CD3D9F8201042F61770CA
:10178000C0F6000025618847D8F8241020688847F3
:10179000A068B5FBF0F1626801FB10503D0A1754D8
:1017A000D4E902062169721C711A8142E2600CD3ED
:1017B000D9F8201042F61770C0F60000266188475D
:1017C000D8F8241020688847A068B6FBF0F162685A
:1017D00001FB10601554D4E9020621693D0C711A11
:1017E000721C8142E2600CD3D9F8201042F61770C7
:1017F000C0F6000026618847D8F824102068884782
:10180000A068B6FBF0F1626801FB10601554D4E9E2
:10181000020621693D0E711A721C8142E2600CD3EE
:10182000D9F8201042F61770C0F6000026618847EC
:10183000D8F8241020688847A068B6FBF0F16268E9
:1018400001FB1060155401B0BDE8F0832DE9F043B1
:1018500081B004460D46D4E903618068711A42F6EE
:10186000744942F69C48721C8142C0F60009C0F6D9
:101870000008E2600CD3D9F8201042F61770C0F6C9
:10188000000026618847D8F8241020688847A0689F
:10189000B6FBF0F1626801FB10602E0A1554D4E922
:1018A000020721697A1C791A8142E2600CD3D9F8C7
:1018B000201042F61770C0F6000027618847D8F85C
:1018C000241020688847A068B7FBF0F1626801FB2C
:1018D00010702F0C1654D4E902062169721C711A7B
:1018E0008142E2600CD3D9F8201042F61770C0F69E
:1018F000000026618847D8F8241020688847A0682F
:10190000B6FBF0F1626801FB10602D0E1754D4E9AC
:1019100002062169721C711A8142E2600CD3D9F867
:10192000201042F61770C0F6000026618847D8F8EC
:10193000241020688847A068B6FBF0F1626801FBBC
:101940001060155401B0BDE8F08300002DE9F043AC
:1019500081B004460D468EB2D4E903718068791ACD
:1019600042F6744942F69C487A1C8142C0F600094E
:10197000C0F60008E2600CD3D9F8201042F61770C8
:10198000C0F6000027618847D8F8241020688847EF
:10199000A068B7FBF0F1626801FB1070360A1554BD
:1019A000D4E9020521696A1C691A8142E2600CD3FC
:1019B000D9F8201042F61770C0F60000256188475C
:1019C000D8F8241020688847A068B5FBF0F1626859
:1019D00001FB1050165401B0BDE8F0832DE9F0472B
:1019E0000E78002E08BFBDE8F087044642F674402A
:1019F000C0F60000D0F8209042F69C40C0F60000EF
:101A0000D0F824A042F617784F1CC0F6000808E072
:101A1000B5FBF0F1626801FB1050165417F8016B2A
:101A200076B1D4E9020521696A1C691A8142E26033
:101A3000EED340462561C8472068D047A068E7E755
:101A4000BDE8F08770B505460C46D5E903618068AE
:101A5000711A721C8142EA6012D342F67440C0F6D9
:101A60000000016A42F61770C0F600002E61884738
:101A700042F69C40C0F60000416A28688847A86882
:101A8000B6FBF0F16A6801FB1060145470BD0000F1
:101A90002DE9F04381B004460D46D4E90361806826
:101AA000711A42F6744942F69C48721C8142C0F693
:101AB0000009C0F60008E2600CD3D9F8201042F605
:101AC0001770C0F6000026618847D8F824102068F7
:101AD0008847A068B6FBF0F1626801FB10602E0A2F
:101AE0001554D4E9020721697A1C791A8142E2600F
:101AF0000CD3D9F8201042F61770C0F60000276109
:101B00008847D8F8241020688847A068B7FBF0F110
:101B1000626801FB10702F0C1654D4E9020621698B
:101B2000721C711A8142E2600CD3D9F8201042F67F
:101B30001770C0F6000026618847D8F82410206886
:101B40008847A068B6FBF0F1626801FB10602D0EBB
:101B50001754D4E902062169721C711A8142E260AD
:101B60000CD3D9F8201042F61770C0F60000266199
:101B70008847D8F8241020688847A068B6FBF0F1A1
:101B8000626801FB1060155401B0BDE8F0830000ED
:101B90002DE9F04104460D46D4E903618068711ACD
:101BA00042F6744742F69C48721C8142C0F6000718
:101BB000C0F60008E2600BD3396A42F61770C0F62F
:101BC000000026618847D8F8241020688847A0685C
:101BD000B6FBF0F1626801FB10602E0A1554D4E9DF
:101BE000020521696A1C691A8142E2600BD3396AD5
:101BF00042F61770C0F6000025618847D8F8241017
:101C000020688847A068B5FBF0F1626801FB1050BE
:101C10001654BDE8F081000086B040F2D8002425BB
:101C2000C2F200004FF4C871C4F20005FEF73AFB9F
:101C300040F2B00B42F6E034C2F2000B0020C0F6D6
:101C40000004CBE9040094E8C1018047B047B847DD
:101C5000C047606A80472069804760698047A06903
:101C60008047E0698047206A804740F61800C4F248
:101C700002004FF4005101604FF0FF30A86040F6C1
:101C80002C00C4F20000006842F66040C0F600007C
:101C90000168C4680091416842F67440C0F60000D3
:101CA00005910168D0F820800291416842F6D83051
:101CB000C0F600000191016840689FED8FAA42F2D2
:101CC00084369FED8EBA9FED8ECA9FED8EDA40F27C
:101CD00048099FED8EEA9FED8EFADFED928ADFEDE7
:101CE0008A9ADFED9CAA42F2080A42F21177C2F208
:101CF0000006C2F20009F1EE04BAB0EE008AC4F2A6
:101D0000010A0491039000BF2868DBF8081000EB7B
:101D10008000C1EB4000B84229D3286800EB800066
:101D20004000CBF808000598804796ED001A20EE99
:101D30000A0A30EE412AB4EE4C2A21EE0B3AF1EEBB
:101D400010FAC8BFB0EE431A31EE400A04DCB4EE1C
:101D50004C0AF1EE10FA0ADDB4EE4C0A21EE0D2A1F
:101D6000F1EE10FAC8BFB0EE421A86ED001AD9F8AB
:101D7000000020B3A04720EE290AB4EE6B0AF1EE72
:101D800010FA1CDD0020C9F800000020C4F2204039
:101D900030604EF20010CEF200004FF000510160B2
:101DA0004FF0804101600098B0EE480A8047202142
:101DB000C4F20101086840F25552104308602868D7
:101DC000DBF80C1000EB8000C1EB4000B8429BD365
:101DD000286800EB80004000CBF80C00A0479AED8B
:101DE000111A48F21F52B8EE411ADBF81400C5F27E
:101DF000EB12411CA1FB022340F2D802C2F2000206
:101E000002EB800090ED002AB0EE409A31EE420ADB
:101E10009BED042A9BED013A5A09642332EE000A35
:101E200002FB131180ED001A29EE0F1A8BED040A44
:101E300020EE0E0A33EE011A36A0CBF814108BED0B
:101E4000000A8BED011AC047BDEEC90A019F10EED2
:101E5000100AB84731A0C04729EE280ABDEEC00AD3
:101E600010EE100AB84730A0C04729EE290ABDEE8F
:101E7000C00A10EE100AB8472DA0C0479BED000A1B
:101E8000BCEEC00A029F10EE100AB8472DA0C04752
:101E90009BED010A20EE2A0ABCEEC00A10EE100AE1
:101EA000B8472DA0C0479BED010A44F6D351BCEEC4
:101EB000C00A10EE100AC1F26201A0FB01129109E2
:101EC0004FF47A7201FB1200B84725A0C047DAF838
:101ED000000042F2117740F08040CAF8000040F262
:101EE00000000499C2F20000884740F234000399D0
:101EF000C2F20000884707E71DC73144CDCC8C3FB4
:101F00000000C8426666663F2B87963F0AD7233C8F
:101F100079E9A63E53706565643A200020727073BB
:101F200020000000000070422072706D2000000050
:101F3000206B6D2F682009426174746572793A20B4
:101F4000000000002056200944697374616E6365C7
:101F50003A2000006F12833A206B6D2000000000D1
:101F6000206D202020202020202020200D00000097
:101F700070B542F28C310028C2F200014FF00E031E
:101F800015D446F26765C6F26665064656FB05F24D
:101F9000941004EBD27404EB8402A6EB42023032BC
:101FA0000936CA54013B122E2646EFD814E046F2F9
:101FB0006766C6F26666054655FB06F2941004EBAA
:101FC000D27404EB8402C5EB420230320935CA54A4
:101FD000013B122D2546EFD80133B0F1FF3F02DC63
:101FE000013B2D22CA5442F60840C0F60000456964
:101FF000581840F20004461EC2F20004D1B2204636
:10200000A847B2780136002AF8D170BD70B52DED21
:10201000028BB0EE608A00F04BFD42F60842017878
:10202000C0F60002556961B140F20004461EC2F2DA
:10203000000400BFC9B22046A847B1780136002984
:10204000F8D140F20000C2F200002021A847B0EE13
:10205000480A00F02DFD017859B140F20004461EF7
:10206000C2F20004C9B22046A847B178013600295F
:10207000F8D1BDEC028B70BD70B50178002908BFA6
:1020800070BD42F60842C0F60002556940F20004F5
:10209000461EC2F2000400BFC9B22046A847B1786C
:1020A00001360029F8D170BD70B5BDEEC01AB8EE8A
:1020B000C12A11EE106A30EE421A40F20004B0EE6E
:1020C000C12A2321B2EE041AC2F2000422EE012A30
:1020D000BDEEC23A13EE100A303062185070B8EEFE
:1020E000433A312901F1010007D032EE432AB5EE1F
:1020F000402AF1EE10FA0146E8D1B5EE400A46F268
:10210000676320440021F1EE10FA4FF00002C6F29E
:102110006663417018DA00BF56FB03F0811001EBD3
:10212000D07000EB8001C6EB41013031A5180936B3
:1021300085F82210132EA2F101051BD30D322A4679
:102140000646E9D116E000BF56FB03F0811001EB13
:10215000D07000EB8001A6EB41013031A5180936A3
:1021600085F82210132EA2F1010503D30D322A4661
:102170000646E9D1B5EE400A05F10F00F1EE10FA7E
:1021800003DA013822182D21117542F60842C0F6F3
:1021900000022044556900F1140600BFC9B2204670
:1021A000A84716F8011F0029F8D170BD70B542F29A
:1021B0008C310028C2F200014FF00E0315D446F214
:1021C0006765C6F26665064656FB05F2941004EB99
:1021D000D27404EB8402A6EB420230320936CA54B0
:1021E000013B122E2646EFD814E046F26766C6F28F
:1021F0006666054655FB06F2941004EBD27404EBB8
:102200008402C5EB420230320935CA54013B122D1B
:102210002546EFD80133B0F1FF3F02DC013B2D2210
:10222000CA5442F60840C0F600004569581840F20A
:102230000004461EC2F20004D1B22046A847B2787C
:102240000136002AF8D170BD70B542F28C3E0028EC
:10225000C2F2000E4FF00E0316D446F26764C6F2C7
:102260006664054655FB04F2911001EBD27101EB57
:102270008102A5EB4202303209350EF80320013B02
:10228000122D0D46EED816E046F2676CC6F2666C6B
:10229000044600BF54FB0CF2951005EBD27505EB1C
:1022A0008502C4EB4202303209340EF80320013BB0
:1022B000122C2C46EED80133B0F1FF3F03DC013B7A
:1022C0002D220EF8032042F60840C0F600004669B1
:1022D00003EB0E0040F20004451EC2F2000400BFF2
:1022E000D1B22046B047AA780135002AF8D140F291
:1022F0000004C2F2000420460A21B04720460D2106
:102300003246BDE870401047F0B581B02DED048B2A
:10231000BDEEC01AB8EEC12A11EE101A30EE421A04
:1023200040F20004B0EE608AB0EEC11A2320B2EE93
:10233000049AC2F2000400BF21EE091ABDEEC12AC0
:1023400012EE102A303223185A70B8EE422A312881
:1023500000F1010207D031EE421AB5EE401AF1EE5B
:1023600010FA1046E8D1A0180022B5EE400A46F255
:1023700067654270F1EE10FAC6F266654FF0000232
:1023800018DA00BF51FB05F0831003EBD07303EBA9
:102390008300C1EB40003030A618093186F82200D6
:1023A0001329A2F101061CD312F10D013246194680
:1023B000E8D116E051FB05F0831003EBD07303EB7B
:1023C0008300A1EB40003030A618093186F82200C6
:1023D0001329A2F1010604D312F10D013246194668
:1023E000E8D1B5EE400A06F10F01F1EE10FA03DA7A
:1023F000013962182D20107542F60842C0F600021D
:102400005269214401F11406C1B220461746904793
:1024100016F8010F3A460028F6D1204620219047B1
:10242000BDEEC80AB8EEC01A10EE101A38EE410A16
:10243000B0EEC00A232000BF20EE090ABDEEC01A8C
:1024400011EE102A303223185A70B8EE411A312892
:1024500000F1010207D030EE410AB5EE400AF1EE7C
:1024600010FA1046E8D1A0180022B5EE408AF1EE2D
:1024700010FA42704FF0000218DA00BF51FB05F06D
:10248000831003EBD07303EB8300C1EB40003030CB
:10249000A618093186F822001329A2F101061CD3DF
:1024A00012F10D0132461946E8D116E051FB05F054
:1024B000831003EBD07303EB8300A1EB40003030BB
:1024C000A618093186F822001329A2F1010604D3C7
:1024D00012F10D0132461946E8D1B5EE408A06F1F7
:1024E0000F01F1EE10FA03DA013962182D20107590
:1024F000214401F1140500BFC1B22046B84715F8C8
:10250000010F0028F8D140F20004C2F200043A465C
:1025100020460A21904720460D213A46BDEC048B07
:1025200001B0BDE8F040104770B542F608420178AE
:10253000C0F60002526979B140F20004451EC2F2B1
:10254000000400BFC9B2204616469047A97832461B
:10255000002905F10105F5D140F20004C2F20004A2
:1025600020460A211546904720460D212A46BDE8FF
:1025700070401047B0B5FFF797FD42F60840C0F62F
:10258000000040F200044569C2F2000420460A211E
:10259000A84720460D212A46BDE8B040104700005C
:1025A00070B542F28C3E0028C2F2000E4FF00E03CE
:1025B00016D446F26764C6F26664054655FB04F21B
:1025C000911001EBD27101EB8102A5EB4202303296
:1025D00009350EF80320013B122D0D46EED816E00A
:1025E00046F2676CC6F2666C044600BF54FB0CF200
:1025F000951005EBD27505EB8502C4EB4202303233
:1026000009340EF80320013B122C2C46EED801337E
:10261000B0F1FF3F03DC013B2D220EF8032042F610
:102620000840C0F60000466903EB0E0040F20004CB
:10263000451EC2F2000400BFD1B22046B047AA78BE
:102640000135002AF8D140F20004C2F2000420460D
:102650000A21B04720460D213246BDE870401047A0
:1026600070B542F28C3E0028C2F2000E4FF00E030D
:1026700016D446F26764C6F26664054655FB04F25A
:10268000911001EBD27101EB8102A5EB42023032D5
:1026900009350EF80320013B122D0D46EED816E049
:1026A00046F2676CC6F2666C044600BF54FB0CF23F
:1026B000951005EBD27505EB8502C4EB4202303272
:1026C00009340EF80320013B122C2C46EED80133BE
:1026D000B0F1FF3F03DC013B2D220EF8032042F650
:1026E0000840C0F60000466903EB0E0040F200040B
:1026F000451EC2F2000400BFD1B22046B047AA78FE
:102700000135002AF8D140F20004C2F2000420464C
:102710000A21B04720460D213246BDE870401047DF
:1027200070B542F608420178C0F60002526979B1EC
:1027300040F20004451EC2F2000400BFC9B22046A8
:1027400016469047A9783246002905F10105F5D1D2
:1027500040F20004C2F2000420460A2115469047C8
:1027600020460D212A46BDE87040104770B542F260
:102770009C31C2F200014CF6CD4201F10F05CCF6BE
:10278000CC4200BFA0FB0213DB0803EB8301A0EBEC
:10279000410141F0300105F8011D09281846F1D822
:1027A00042F60840C0F60000466940F20004C2F25A
:1027B000000400BFC9B22046B04715F8011F002928
:1027C000F8D140F20004C2F2000420460A21B047CA
:1027D00020460D213246BDE87040104770B542F2E8
:1027E0009C31C2F200014CF6CD4201F10F05CCF64E
:1027F000CC4200BFA0FB0213DB0803EB8301A0EB7C
:10280000410141F0300105F8011D09281846F1D8B1
:1028100042F60840C0F60000466940F20004C2F2E9
:10282000000400BFC9B22046B04715F8011F0029B7
:10283000F8D140F20004C2F2000420460A21B04759
:1028400020460D213246BDE87040104770B542F277
:102850009C31C2F200014CF6CD4201F10F05CCF6DD
:10286000CC4200BFA0FB0213DB0803EB8301A0EB0B
:10287000410141F0300105F8011D09281846F1D841
:1028800042F60840C0F60000466940F20004C2F279
:10289000000400BFC9B22046B04715F8011F002947
:1028A000F8D140F20004C2F2000420460A21B047E9
:1028B00020460D213246BDE87040104770B542F207
:1028C0008C310028C2F200014FF00E0315D446F2FD
:1028D0006765C6F26665064656FB05F2941004EB82
:1028E000D27404EB8402A6EB420230320936CA5499
:1028F000013B122E2646EFD814E046F26766C6F278
:102900006666054655FB06F2941004EBD27404EBA0
:102910008402C5EB420230320935CA54013B122D04
:102920002546EFD80133B0F1FF3F02DC013B2D22F9
:10293000CA5442F60840C0F600004569581840F2F3
:102940000004461EC2F20004D1B22046A847B27865
:102950000136002AF8D170BD70B50178002908BF92
:1029600070BD42F60842C0F60002556940F200040C
:10297000461EC2F2000400BFC9B22046A847B17883
:1029800001360029F8D170BD70B542F29C31C2F217
:1029900000014CF6CD4201F10F05CCF6CC4200BF50
:1029A000A0FB0213DB0803EB8301A0EB410141F024
:1029B000300105F8011D09281846F1D842F60840F3
:1029C000C0F60000466940F20004C2F2000400BFF5
:1029D000C9B22046B04715F8011F0029F8D170BDD3
:1029E00070B542F29C31C2F200014CF6CD4201F1C9
:1029F0000F05CCF6CC4200BFA0FB0213DB0803EBB3
:102A00008301A0EB410141F0300105F8011D0928C7
:102A10001846F1D842F60840C0F60000466940F278
:102A20000004C2F2000400BFC9B22046B04715F846
:102A3000011F0029F8D170BD70B542F29C31C2F27D
:102A400000014CF6CD4201F10F05CCF6CC4200BF9F
:102A5000A0FB0213DB0803EB8301A0EB410141F073
:102A6000300105F8011D09281846F1D842F6084042
:102A7000C0F60000466940F20004C2F2000400BF44
:102A8000C9B22046B04715F8011F0029F8D170BD22
:102A900042F28830C2F2000090ED000A7047000058
:102AA00042F28830C2F2000080ED000A7047000058
:102AB00010B5BDEEC01AB8EEC12A11EE100A30EE04
:102AC000421A40F2000EB0EEC12A2322B2EE041ADE
:102AD000C2F2000E22EE012ABDEEC23A13EE101A27
:102AE00030310EEB02035970B8EE433A312A02F14D
:102AF000010107D032EE432AB5EE402AF1EE10FA7A
:102B00000A46E7D171440022B5EE400A46F2676CEE
:102B1000F1EE10FA4A704FF00002C6F2666C1FDA4E
:102B200050FB0CF18B1003EBD17101EB8103C0EB77
:102B3000430330330EEB0204093084F822301328AB
:102B4000A2F1010304D312F10D001A460846E7D1A1
:102B500003F10F01B5EE400AF1EE10FA23DA1DE0A1
:102B600050FB0CF18B1003EBD17303EB8301A0EB53
:102B7000410130310EEB0204093084F82210132891
:102B8000A2F1010104D312F10D000A461846E7D163
:102B90000F31B5EE400AF1EE10FA04DA01390EEB0E
:102BA00001002D2202750EEB0100143010BD000053
:102BB00040F2C800C2F2000080ED030A7047F1EE57
:102BC000100A4FF6FF71C0F2C03120EA010040F058
:102BD0004070E1EE100A70477D0B0008010C000800
:102BE00019050008BD080008C1090008050B000808
:102BF00099030008ED04000891070008510400083B
:102C0000750700086D030008350E00087D0D0008EB
:102C1000750D00084D0E00083D0E0008451A00080D
:102C200011150008911B00084D190008911A0008A1
:102C30004D1800084D1700085D150008DD19000843
:102C4000311300085D0E0008811400089D12000871
:102C500079130008951100088D100008A50E0008D2
:102C6000A12A0008912A0008790C0008650D0008C7
:102C7000B12B0008E1290008AD210008392A00081D
:102C8000BD28000889290008711F0008A920000834
:102C90000D2000085929000879200008DD270008C8
:102CA000A12500084D280008612600086D270008AE
:102CB000492200087525000809230008212700087B
:102CC000292500080000DD0800E11100E51900E8F1
:102CD0002100EC2A00EF3200F13A00F44200F64AFB
:102CE00000F85200FA5A00FC6200FD6900FE710013
:102CF000FE7800FF8000FF8700FF8E00FE9500FE3B
:102D00009B00FDA200FCA800FAAE00F8B400F6BAE1
:102D100000F4C000F1C500EFCA00ECCF00E8D40019
:102D2000E5D900E1DD00DDE100D9E500D4E800CF20
:102D3000EC00CAEF00C5F100C0F400BAF600B4F828
:102D400000AEFA00A8FC00A2FD009BFE0095FE006C
:102D50008EFF0087FF007FFF0078FE0071FE006994
:102D6000FD0062FC005AFA0052F8004AF60042F4F4
:102D7000003AF10032EF002AEC0021E80019E500EA
:102D800011E10008DD0000E10800E51100E819008C
:102D9000EC2100EF2A00F13200F43A00F64200F88C
:102DA0004A00FA5200FC5A00FD6200FE6900FE7102
:102DB00000FF7800FF7F00FF8700FE8E00FE950079
:102DC000FD9B00FCA200FAA800F8AE00F6B400F4E7
:102DD000BA00F1C000EFC500ECCA00E8CF00E5D4AE
:102DE00000E1D900DDDD00D9E100D4E500CFE80045
:102DF000CAEC00C5EF00C0F100BAF400B4F600AEB2
:102E0000F800A8FA00A2FC009BFD0095FE008EFED3
:102E10000087FF0080FF0078FF0071FE0069FE0060
:102E200062FD005AFC0052FA004AF80042F6003AED
:102E3000F40032F1002AEF0021EC0019E80011E55E
:102E40000008E10000DD0000E10800E51100E819DC
:102E500000EC2100EF2A00F13200F43A00F64200C3
:102E6000F84A00FA5200FC5A00FD6200FE6900FEBA
:102E70007100FF7800FF8000FF8700FE8E00FE9546
:102E800000FD9B00FCA200FAA800F8AE00F6B4001A
:102E9000F4BA00F1C000EFC500ECCA00E8CF00E5CD
:102EA000D400E1D900DDDD00D9E100D4E500CFE8B0
:102EB00000CAEC00C5EF00C0F100BAF400B4F6009F
:102EC000AEF800A8FA00A2FC009BFD0095FE008E63
:102ED000FE0087FF0080FF0078FF0071FE0069FEA2
:102EE0000062FD005AFC0052FA004AF80042F60067
:102EF0003AF40032F1002AEF0021EC0019E8001149
:102F0000E50008E15072696E74004552524F523A22
:102F1000207265616420004552524F523A20777208
:102F200069746520005370656564206572726F7204
:102F300000426C7565746F6F74680000602F000844
:102F4000000000205000000000020008B02F000820
:102F500050000020602900001C0200080000000052
:102F6000042F000882030020002000000000000061
:102F70000000000000000000000000000000000051
:102F80000000002E00000000000000000000000013
:102F900000000000312F000868020020000100003E
:102FA0000000000000000000010000000000000020
:04000005080001C529
:00000001FF
