:020000040800F2
:1000000008280020650200086D0200086F02000841
:100010007102000873020008750200080000000069
:10002000000000000000000000000000770200084F
:1000300079020008000000007B0200087D02000831
:100040007F0200087F0200087F0200087F0200088C
:100050007F0200087F02000891030008A90300083E
:10006000C10300087F0200087F0200087F02000829
:100070007F0200087F0200087F0200087F0200085C
:100080007F0200087F0200087F0200087F0200084C
:100090007F0200087F0200087F0200087F0200083C
:1000A0007F0200087F0200087F0200087F0200082C
:1000B0007F0200087F0200087F0200087F0200081C
:1000C0007F0200087F0200087F0200087F0200080C
:1000D0007F0200087F0200087F020008A90E0008C6
:1000E0007F0200087F0200087F0200087F020008EC
:1000F0007F0200087F0200087F0200087F020008DC
:100100007F0200087F0200087F0200087F020008CB
:100110007F0200087F0200087F0200087F020008BB
:100120007F0200087F0200087F0200087F020008AB
:100130007F02000800000000000000007F020008AD
:100140007F0200087F0200087F0200087F0200088B
:100150007F0200087F0200087F0200087F0200087B
:100160007F0200087F0200087F0200087F0200086B
:100170007F0200087F0200087F02000800000000E4
:10018000000000007F0200080000000000000000E6
:100190007F02000800000000000000007F0200084D
:1001A0000000000000000000000000007F020008C6
:1001B0007F0200087F0200087F0200087F0200081B
:1001C0007F02000800F002F800F03CF80AA090E876
:1001D000000C82448344AAF10107DA4501D100F002
:1001E00031F8AFF2090EBAE80F0013F0010F18BF93
:1001F000FB1A43F00103184798300000B8300000A4
:10020000103A24BF78C878C1FAD8520724BF30C842
:1002100030C144BF04680C60704700000023002414
:1002200000250026103A28BF78C1FBD8520728BF06
:1002300030C148BF0B6070471FB502F07CFF1FBD87
:1002400010B510BD00F031F81146FFF7F5FF01F0D1
:100250007DFF00F04FF803B4FFF7F2FF03BC00F09E
:1002600057F800000948804709480047FEE7FEE7C5
:10027000FEE7FEE7FEE7FEE7FEE7FEE7FEE7FEE756
:1002800004480549054A064B70470000910D0008D7
:10029000C5010008082200200828002008240020AA
:1002A00008240020704770477047754600F02CF80E
:1002B000AE4605006946534620F00700854618B053
:1002C00020B5FFF7DDFFBDE820404FF000064FF0FE
:1002D00000074FF000084FF0000BAC46ACE8C00937
:1002E000ACE8C009ACE8C009ACE8C00921F00701DE
:1002F0008D46704710B50446AFF300802046BDE838
:100300001040FFF7A8BF00000048704748000020D9
:1003100001491820ABBEFEE726000200704700002E
:1003200043F63000C4F20200016841F4001101609C
:10033000016841F48001016046F2580044F604016E
:10034000C4F20200C4F200018160026801F5484174
:1003500042F480620260026842F040020260026879
:1003600042F000620260C0F86814D0F8601441F4F2
:100370008061C0F86014D0F8601441F04001C0F80A
:100380006014D0F8601441F00061C0F86014704748
:1003900043F2E811C0F6000143F614408968C4F244
:1003A000010001220260084743F2E811C0F6000193
:1003B00043F614408968C4F2010002220260084733
:1003C00043F2E811C0F6000143F614408968C4F214
:1003D000010004220260084743F64400C4F2020010
:1003E000016841F48041016043F60800C4F2010055
:1003F00001680160D0F8001441F00101C0F8001458
:1004000043F60C41C4F201010A6842F001020A609D
:1004100001228A60D0F8F82342F00102C0F8F823E4
:1004200002680260D0F8002442F00202C0F8002402
:100430000A6842F002020A6002228A60D0F8F823B9
:1004400042F00202C0F8F82302680260D0F80024EB
:1004500042F00402C0F800240A6842F004020A6074
:1004600004228A60D0F8F81341F00401C0F8F813B0
:100470007047000043F60040C4F20200016841F0FA
:1004800005010160016841F480710160016841F477
:1004900000710160016841F48061016070470000F3
:1004A00043F63000C4F20200016841F0010101602E
:1004B000016841F002010160016841F0040101603E
:1004C0000020C4F2020001680160C16841F002012D
:1004D000C16001680160C16841F00801C160016844
:1004E0000160C16841F02001C160016841F4003140
:1004F000016041684160816841F440318160C168B8
:10050000C160416A41F001014162016841F400218A
:10051000016041684160816841F440218160C168A7
:10052000C160416A41F010014162016841F400116B
:10053000016041684160816841F440118160C16897
:10054000C160416A41F480714162D0F8001441F009
:100550000061C0F8001440F20441C4F202010A68CC
:100560000A604A6842F040624A608A688A600A6AA1
:1005700042F480120A62D0F8002442F00052C0F81F
:1005800000240A680A604A6842F040524A608A6859
:100590008A600A6A42F080720A62D0F8002442F04F
:1005A0000042C0F800240A680A604A6842F04042EB
:1005B0004A608A688A600A6A42F080520A62D0F809
:1005C000002442F40052C0F800240A680A604A6815
:1005D00042F440524A608A6842F400528A60CA6912
:1005E00042F0E062CA61D0F8002442F40042C0F850
:1005F000002408680860486840F440404860886803
:1006000040F400408860C86940F0E040C861D1F81B
:10061000FC0340F40010C1F8FC03D1F80004C1F859
:10062000000440F60800C4F20200026842F44012DE
:100630000260426842F400124260C26942F4E06221
:10064000C261D1F8FC2342F40002C1F8FC23D1F8C6
:100650000024C1F80024026842F4400202604268AB
:1006600042F400024260C26942F4E042C261D1F841
:10067000FC2342F08062C1F8FC23D1F80024C1F8C9
:100680000024016841F040610160416841F000616F
:10069000416070474EF20010CEF200004021016030
:1006A000802101604FF48072026041607047000059
:1006B000B0B5B5EE400AF1EE10FA40F3F4809FEDCC
:1006C0007A1A20EE010ABCEEC00A10EE100AA0F160
:1006D000110140F20110A1FB00028B1A02EB530240
:1006E0004EF21800D30DCEF200001B06A3EBD2533E
:1006F0000268CB1A0468141B24F07F449C4211D278
:100700000568551B25F07F459D420BD20568551B9A
:1007100025F07F459D4205D20568551B25F07F4594
:100720009D42E7D30022B2EB116F00F0BC804FEA8C
:10073000116E4FF62871C0F2FF011EF00304AEF1F6
:10074000010C34D0026801F1D00300BF0568551BCD
:100750001D408D420ED20568551B1D408D4209D2A9
:100760000568551B1D408D4204D20568551B1D4070
:100770008D42EBD3012C624632D002680568551BCE
:100780001D408D420ED20568551B1D408D4209D279
:100790000568551B1D408D4204D20568551B1D4040
:1007A0008D42EBD3022C04D1AEF1020218E0724666
:1007B00016E002680468141B1C408C420ED20468C8
:1007C000141B1C408C4209D20468141B1C408C4230
:1007D00004D20468141B1C408C42EBD3AEF103021C
:1007E000BCF1030F38BFB0BD01F1D00302E000BF80
:1007F000043A58D0046800BF0568651B1D408D424F
:100800000ED20568651B1D408D4209D20568651B27
:100810001D408D4204D20568651B1D408D42EBD3FF
:10082000046800BF0568651B1D408D420ED2056837
:10083000651B1D408D4209D20568651B1D408D4218
:1008400004D20568651B1D408D42EBD3046800BFD0
:100850000568651B1D408D420ED20568651B1D4055
:100860008D4209D20568651B1D408D4204D2056882
:10087000651B1D408D42EBD3046800BF0568651BF6
:100880001D408D42B4D20568651B1D408D42AFD21C
:100890000568651B1D408D42AAD20568651B1D4079
:1008A0008D42EBD3A4E7B0BDCDCC4C43B0B59FEDAA
:1008B0007F1A20EE011AB5EE401AF1EE10FA40F35D
:1008C000F4809FED7B1A20EE010ABCEEC00A10EE08
:1008D000100AA0F1110140F20110A1FB00028B1AD5
:1008E00002EB53024EF21800D30DCEF200001B06AD
:1008F000A3EBD2530268CB1A0468141B24F07F4484
:100900009C4211D20568551B25F07F459D420BD2B4
:100910000568551B25F07F459D4205D20568551B8E
:1009200025F07F459D42E7D30022B2EB116F00F026
:10093000BC804FEA116E4FF62871C0F2FF011EF025
:100940000304AEF1010C34D0026801F1D00300BF02
:100950000568551B1D408D420ED20568551B1D4074
:100960008D4209D20568551B1D408D4204D2056891
:10097000551B1D408D42EBD3012C624632D00268DC
:100980000568551B1D408D420ED20568551B1D4044
:100990008D4209D20568551B1D408D4204D2056861
:1009A000551B1D408D42EBD3022C04D1AEF1020247
:1009B00018E0724616E002680468141B1C408C4262
:1009C0000ED20468141B1C408C4209D20468141B0C
:1009D0001C408C4204D20468141B1C408C42EBD394
:1009E000AEF10302BCF1030F38BFB0BD01F1D0037B
:1009F00002E000BF043A58D0046800BF0568651BD8
:100A00001D408D420ED20568651B1D408D4209D2E6
:100A10000568651B1D408D4204D20568651B1D409D
:100A20008D42EBD3046800BF0568651B1D408D42F5
:100A30000ED20568651B1D408D4209D20568651BF5
:100A40001D408D4204D20568651B1D408D42EBD3CD
:100A5000046800BF0568651B1D408D420ED2056805
:100A6000651B1D408D4209D20568651B1D408D42E6
:100A700004D20568651B1D408D42EBD3046800BF9E
:100A80000568651B1D408D42B4D20568651B1D407D
:100A90008D42AFD20568651B1D408D42AAD2056804
:100AA000651B1D408D42EBD3A4E7B0BD00007A4426
:100AB0000000484843F60400C4F2020050F8041C49
:100AC00041F4803140F8041C50F8041C89035CBFD9
:100AD00050F8041C5FEA813107D450F8041C8903E4
:100AE00003D450F8041C8903EED5016847F6C072A0
:100AF00021F480010160016841F480010160016816
:100B000021F03F010160016841F0090101600168C5
:100B100091430160016841F448510160016821F48A
:100B2000403101600168016050F8041C41F080719F
:100B300040F8041C50F8041C89010CD450F8041C23
:100B400089015CBF50F8041C5FEA811103D450F89E
:100B5000041C8901EED5416821F4E05141604168EF
:100B600041F4A0514160416821F460414160416815
:100B700041F400414160416821F003014160416856
:100B800041F0020141607047B0B59FED7F1A20EE41
:100B9000011AB5EE401AF1EE10FA40F3F4809FED21
:100BA0007B1A20EE010ABCEEC00A10EE100AA0F17A
:100BB000110140F20110A1FB00028B1A02EB53025B
:100BC0004EF21800D30DCEF200001B06A3EBD25359
:100BD0000268CB1A0468141B24F07F449C4211D293
:100BE0000568551B25F07F459D420BD20568551BB6
:100BF00025F07F459D4205D20568551B25F07F45B0
:100C00009D42E7D30022B2EB116F00F0BC804FEAA7
:100C1000116E4FF62871C0F2FF011EF00304AEF111
:100C2000010C34D0026801F1D00300BF0568551BE8
:100C30001D408D420ED20568551B1D408D4209D2C4
:100C40000568551B1D408D4204D20568551B1D408B
:100C50008D42EBD3012C624632D002680568551BE9
:100C60001D408D420ED20568551B1D408D4209D294
:100C70000568551B1D408D4204D20568551B1D405B
:100C80008D42EBD3022C04D1AEF1020218E0724681
:100C900016E002680468141B1C408C420ED20468E3
:100CA000141B1C408C4209D20468141B1C408C424B
:100CB00004D20468141B1C408C42EBD3AEF1030237
:100CC000BCF1030F38BFB0BD01F1D00302E000BF9B
:100CD000043A58D0046800BF0568651B1D408D426A
:100CE0000ED20568651B1D408D4209D20568651B43
:100CF0001D408D4204D20568651B1D408D42EBD31B
:100D0000046800BF0568651B1D408D420ED2056852
:100D1000651B1D408D4209D20568651B1D408D4233
:100D200004D20568651B1D408D42EBD3046800BFEB
:100D30000568651B1D408D420ED20568651B1D4070
:100D40008D4209D20568651B1D408D4204D205689D
:100D5000651B1D408D42EBD3046800BF0568651B11
:100D60001D408D42B4D20568651B1D408D42AFD237
:100D70000568651B1D408D42AAD20568651B1D4094
:100D80008D42EBD3A4E7B0BD002474490050434D1D
:100D90004EF68850CEF2000001684FF0000C41F48E
:100DA0007001016043F60001C4F202010A6842F0DA
:100DB00001020A60C1F808C00B684FF6FF72CFF657
:100DC000F6621A400A6043F21002C2F200424A6020
:100DD0000A6822F480220A60C1F80CC04FF000615A
:100DE00040F8801C704700004EF21000CEF2000068
:100DF0004FF0FF31416081600521016070470000C4
:100E000043F64000C4F202004168C72241F00101EC
:100E100041601821C4F201010A613F224A61402267
:100E2000CA610B6843F060030B600B6843F0080372
:100E30000B608B6843F00A038B600A620B6843F413
:100E4000C0430B600B6843F400630B608B6843F096
:100E5000A0038B604A624A6842F060024A604A68B6
:100E600042F008024A608A6842F420628A60CA6AD4
:100E700042F40042CA6251F8182C42F0010241F8D3
:100E8000182C016841F0010101602820C4F2000023
:100E900042F2FF7101600F2141604FF08040016814
:100EA00041F001010160704710B544F60400C4F23E
:100EB000000043F2F4110068C0F60001096AA0F1D5
:100EC00030040AA0884743F21C20C0F600000168E5
:100ED0002046884743F2E810C0F60000006800EEA4
:100EE000104AB8EE400ABDE81040004753706565EF
:100EF000642073657420000043F64000C4F20200D1
:100F00004168322241F01001416041F20C01C4F20B
:100F1000010141F8042C0A6842F008020A608A685C
:100F200042F080028A600A6842F400520A60016856
:100F300041F48021016044F60C00C4F2000041F24B
:100F4000D54140F8041C016841F0080101600168C6
:100F500041F004010160016841F0200101608168F5
:100F600041F080018160016841F4005101607047E7
:100F70002DE9F04381B043F29017C0F600073968BD
:100F80000446884738B146F20C46C4F202060546CC
:100F9000D6F8B00010B101B0BDE8F08341F200080E
:100FA000C4F20108D8F800000006F4D5D7E9031907
:100FB000204688472F1A204698BF2F46C8476168A9
:100FC0002269084408F10401C6F8B070C6F8B410EC
:100FD000C6F8B800306840F000603060D6F8AC0069
:100FE00040F00100C6F8AC00D019206101B0BDE8A6
:100FF000F08300002DE9F04381B043F29017C0F672
:10100000000739680446884730B146F20806C4F242
:1010100002060546706D10B101B0BDE8F08344F6DC
:101020000008C4F20008D8F800000006F4D5D7E99B
:101030000319204688472F1A204698BF2F46C847D5
:1010400061682269084408F104017765B165F065BB
:10105000306840F000603060306D40F00100306575
:10106000D019206101B0BDE8F083000070B542F2F4
:10107000E6110028C2F200014FF00E0315D446F22B
:101080006765C6F26665064656FB05F2941004EBEA
:10109000D27404EB8402A6EB420230320936CA5401
:1010A000013B122E2646EFD814E046F26766C6F2E0
:1010B0006666054655FB06F2941004EBD27404EB09
:1010C0008402C5EB420230320935CA54013B122D6D
:1010D0002546EFD80133B0F1FF3F02DC013B2D2262
:1010E000CA5443F29010C0F600004569581840F207
:1010F0003404461EC2F20004D1B22046A847B2789A
:101100000136002AF8D170BD70B50178002908BFFA
:1011100070BD43F29012C0F60002556940F23404EB
:10112000461EC2F2000400BFC9B22046A847B178EB
:1011300001360029F8D170BD10B51020C4F20200AC
:10114000006810F0070300F09F80072B00F09C80E0
:1011500040F2A804C2F20004A1684AF6AB2ECAF617
:10116000AA2EA1FB0E20800800EB4000A1EB40005E
:1011700046A252F82000984240F08680E0689842EB
:1011800000F08280481CA06043F24420C0F60000BA
:1011900040F2340C50F82300C4F2010CE3604CF828
:1011A000140CA1684EF6EF60CEF6EE60484348F6A8
:1011B00088024FEA7000C0F68802904208D840F6D4
:1011C0001400C4F20200016881F400510160A168BA
:1011D00001FB0EF04AF6AA214FEA7000C2F6AA21DE
:1011E000884288BF10BD2422C4F2000210684CF669
:1011F000CD43CCF6CC43A0FB030120699FED291A17
:10120000C0EBD10000EE100AB8EE400A81EE000AF1
:1012100094ED001AB6EE003A30EE412AB0EEC22A42
:10122000B4EE432AF1EE10FA84ED010A27DBDCF874
:101230000010B4EE410AF1EE10FA0FDA0B291ED3BA
:10124000DCF800000138CCF80000DCF804000138BC
:10125000CCF80400DCF8080001380EE03B290ED879
:10126000DCF800000130CCF80000DCF804000130AC
:10127000CCF80400DCF808000130CCF80800106855
:10128000A0FB0301C808206110BD00BF05000000DD
:101290000100000003000000020000000600000042
:1012A000040000000000C842C168016170470000EE
:1012B0002DE9F04F81B00446C06822690092821A7D
:1012C0004DD00D4643F2F411C0F60001D1F820B024
:1012D00043F21C21DDF80080C0F60001D1F8249013
:1012E000A8EB000101F1010A08F10101404521616B
:1012F0000AD100BFA1680844E06043F26A20C0F64A
:101300000000D8472068C847A0686268B8FBF0F1C1
:1013100001FB10802969175CD5E90206711A721C5D
:101320008142EA6008D343F27720C0F600002E61C4
:10133000D8472868C847A868B6FBF0F16A6801FB7F
:101340001060BAF1000F175409D0D4E903080AF16C
:10135000010A08F1010140452161CBD0D4E7009892
:10136000206101B0BDE8F08FD0E90310081A704782
:1013700081680069B0FBF1F202FB110070470000C8
:10138000D0E90210B0FBF1F202FB1100704700003F
:10139000B0B50446D0E90305691CA842216113D108
:1013A000A06843F2F4112844C0F60001096AE06025
:1013B00043F26A20C0F60000884743F21C20C0F6C2
:1013C0000000416A20688847A0686268B5FBF0F1B8
:1013D00001FB10501056B0BD2DE9F04381B004461A
:1013E000D0E9030543F2F41943F21C286E1CA8420D
:1013F000C0F60009C0F6000826610FD1A068D9F830
:1014000020102844E06043F26A20C0F600008847BC
:10141000D8F8241020688847D4E90306A1686268D8
:10142000B5FBF1F340F2BC1703FB1153C2F2000706
:10143000D35C751CB0423B70256110D10844D9F8CB
:101440002010E06043F26A20C0F600008847D8F818
:10145000241020688847D4E90121D4E90305B6FBAC
:10146000F1F3A84203FB116305F10106D35C266189
:101470007B7010D10844D9F82010E06043F26A2054
:10148000C0F600008847D8F8241020688847D4E9BF
:101490000121D4E90306B5FBF1F3B04203FB11537C
:1014A00006F10105D35C2561BB7010D10844D9F861
:1014B0002010E06043F26A20C0F600008847D8F8A8
:1014C000241020688847D4E90121D4E90305B6FB3C
:1014D000F1F3A84203FB116305F10106D35C266119
:1014E000FB7010D10844D9F82010E06043F26A2064
:1014F000C0F600008847D8F8241020688847D4E94F
:101500000121D4E90306B5FBF1F3B04203FB11530B
:1015100006F10105D35C25613B7110D10844D9F86F
:101520002010E06043F26A20C0F600008847D8F837
:10153000241020688847D4E90121D4E90305B6FBCB
:10154000F1F3A84203FB116305F10106D35C2661A8
:101550007B7110D10844D9F82010E06043F26A2072
:10156000C0F600008847D8F8241020688847D4E9DE
:101570000121D4E90306B5FBF1F3B04203FB11539B
:10158000D35CBB7106F1010323610ED10844D9F885
:101590002010E06043F26A20C0F600008847D8F8C7
:1015A000241020688847D4E90121B6FBF1F000FB44
:1015B0001160105CF87197EC020A01B0BDE8F0838D
:1015C0002DE9F04381B00446D0E9030543F2F41954
:1015D00043F21C286E1CA842C0F60009C0F60008A1
:1015E00026610FD1A068D9F820102844E06043F2AA
:1015F0006A20C0F600008847D8F824102068884781
:10160000D4E90306A1686268B5FBF1F340F2C417A0
:1016100003FB1153C2F20007D35C751CB0423B7050
:10162000256110D10844D9F82010E06043F26A2007
:10163000C0F600008847D8F8241020688847D4E90D
:101640000121D4E90305B6FBF1F3A84203FB1163C2
:1016500005F10106D35C26617B7010D10844D9F8EE
:101660002010E06043F26A20C0F600008847D8F8F6
:10167000241020688847D4E90121D4E90306B5FB8A
:10168000F1F3B04203FB1153D35CBB7006F10103CD
:1016900023610ED10844D9F82010E06043F26A209B
:1016A000C0F600008847D8F8241020688847D4E99D
:1016B0000121B6FBF1F000FB1160105CF87097EDB2
:1016C000000A01B0BDE8F0832DE9F04381B0044683
:1016D000D0E9030543F2F41943F21C286E1CA8421A
:1016E000C0F60009C0F6000826610FD1A068D9F83D
:1016F00020102844E06043F26A20C0F600008847CA
:10170000D8F8241020688847D4E90306A1686268E5
:10171000B5FBF1F340F2C81703FB1153C2F2000707
:10172000D35C751CB0423B70256110D10844D9F8D8
:101730002010E06043F26A20C0F600008847D8F825
:10174000241020688847D4E90121D4E90305B6FBB9
:10175000F1F3A84203FB116305F10106D35C266196
:101760007B7010D10844D9F82010E06043F26A2061
:10177000C0F600008847D8F8241020688847D4E9CC
:101780000121D4E90306B5FBF1F3B04203FB115389
:10179000D35CBB7006F1010323610ED10844D9F874
:1017A0002010E06043F26A20C0F600008847D8F8B5
:1017B000241020688847D4E90121B6FBF1F000FB32
:1017C0001160105CF870386801B0BDE8F08300006B
:1017D0002DE9F0410446D0E9030643F2F41743F241
:1017E0001C28751CB042C0F60007C0F60008256131
:1017F0000ED1A068396A3044E06043F26A20C0F636
:1018000000008847D8F8241020688847D4E90305E9
:10181000A1686268B6FBF1F3A84203FB116340F2D2
:10182000CC16D35CC2F20006337005F101032361CC
:101830000DD10844396AE06043F26A20C0F6000026
:101840008847D8F8241020688847D4E90121B5FBDF
:10185000F1F000FB1150105C7070B6F90000BDE8AB
:10186000F0810000B0B50446D0E90305691CA84228
:10187000216113D1A06843F2F4112844C0F600019D
:10188000096AE06043F26A20C0F60000884743F22C
:101890001C20C0F60000416A20688847A068626882
:1018A000B5FBF0F101FB1050105CB0BD2DE9F04329
:1018B00081B00446D0E9030543F2F41943F21C2831
:1018C0006E1CA842C0F60009C0F6000826610FD1C0
:1018D000A068D9F820102844E06043F26A20C0F6DE
:1018E00000008847D8F8241020688847D4E9030608
:1018F000A1686268B5FBF1F340F2D01703FB115306
:10190000C2F20007D35C751CB0423B70256110D158
:101910000844D9F82010E06043F26A20C0F60000C5
:101920008847D8F8241020688847D4E90121D4E9F1
:101930000305B6FBF1F3A84203FB116305F10106B1
:10194000D35C26617B7010D10844D9F82010E06088
:1019500043F26A20C0F600008847D8F824102068B7
:101960008847D4E90121D4E90306B5FBF1F3B0427D
:1019700003FB1153D35CBB7006F1010323610ED14D
:101980000844D9F82010E06043F26A20C0F6000055
:101990008847D8F8241020688847D4E90121B6FB8D
:1019A000F1F000FB1160105CF870386801B0BDE820
:1019B000F08300002DE9F0410446D0E9030643F22C
:1019C000F41743F21C28751CB042C0F60007C0F69D
:1019D000000825610ED1A068396A3044E06043F206
:1019E0006A20C0F600008847D8F82410206888478D
:1019F000D4E90305A1686268B6FBF1F3A84203FBD2
:101A0000116340F2D416D35CC2F20006337005F1C4
:101A1000010323610DD10844396AE06043F26A2072
:101A2000C0F600008847D8F8241020688847D4E919
:101A30000121B5FBF1F000FB1150105C7070308893
:101A4000BDE8F08170B505460C46D5E903618068B4
:101A5000711A721C8142EA6012D343F2F410C0F68C
:101A60000000016A43F27720C0F600002E6188472B
:101A700043F21C20C0F60000416A28688847A86825
:101A8000B6FBF0F16A6801FB1060145470BD0000F1
:101A90002DE9F04381B02DED028B0446D4E90351CA
:101AA0008068691A43F2F41943F21C28B0EE608A88
:101AB00010EE107A6A1C8142C0F60009C0F60008D8
:101AC000E2600CD3D9F8201043F27720C0F6000072
:101AD00025618847D8F8241020688847A068B5FB9E
:101AE000F0F1626801FB10503D0A1754D4E9020678
:101AF0002169721C711A8142E2600CD3D9F820105E
:101B000043F27720C0F6000026618847D8F82410F9
:101B100020688847A068B6FBF0F1626801FB10609E
:101B20001554D4E9020621693D0C711A721C8142D8
:101B3000E2600CD3D9F8201043F27720C0F6000001
:101B400026618847D8F8241020688847A068B6FB2B
:101B5000F0F1626801FB10601554D4E902062169B6
:101B60003D0E711A721C8142E2600CD3D9F820102C
:101B700043F27720C0F6000026618847D8F8241089
:101B800020688847A068B6FBF0F1626801FB10602E
:101B900018EE107A1554D4E9020521696A1C691AF5
:101BA0008142E2600CD3D9F8201043F27720C0F6CE
:101BB000000025618847D8F8241020688847A0686D
:101BC000B5FBF0F1626801FB10503D0A1754D4E9EF
:101BD00002062169721C711A8142E2600CD3D9F8A5
:101BE000201043F27720C0F6000026618847D8F81D
:101BF000241020688847A068B6FBF0F1626801FBFA
:101C000010601554D4E9020621693D0C711A721C4A
:101C10008142E2600CD3D9F8201043F27720C0F65D
:101C2000000026618847D8F8241020688847A068FB
:101C3000B6FBF0F1626801FB10601554D4E90206AE
:101C400021693D0E711A721C8142E2600CD3D9F8F1
:101C5000201043F27720C0F6000026618847D8F8AC
:101C6000241020688847A068B6FBF0F1626801FB89
:101C700010601554BDEC028B01B0BDE8F08300008C
:101C80002DE9F04381B00446D4E903518068691A14
:101C900043F2F41943F21C2810EE107A6A1C8142B8
:101CA000C0F60009C0F60008E2600CD3D9F8201095
:101CB00043F27720C0F6000025618847D8F8241049
:101CC00020688847A068B5FBF0F1626801FB1050FE
:101CD0003D0A1754D4E902062169721C711A814227
:101CE000E2600CD3D9F8201043F27720C0F6000050
:101CF00026618847D8F8241020688847A068B6FB7A
:101D0000F0F1626801FB10601554D4E90206216904
:101D10003D0C711A721C8142E2600CD3D9F820107C
:101D200043F27720C0F6000026618847D8F82410D7
:101D300020688847A068B6FBF0F1626801FB10607C
:101D40001554D4E9020621693D0E711A721C8142B4
:101D5000E2600CD3D9F8201043F27720C0F60000DF
:101D600026618847D8F8241020688847A068B6FB09
:101D7000F0F1626801FB1060155401B0BDE8F0831A
:101D80002DE9F04381B004460D46D4E90361806833
:101D9000711A43F2F41943F21C28721C8142C0F6F6
:101DA0000009C0F60008E2600CD3D9F8201043F215
:101DB0007720C0F6000026618847D8F824102068F4
:101DC0008847A068B6FBF0F1626801FB10602E0A3C
:101DD0001554D4E9020721697A1C791A8142E2601C
:101DE0000CD3D9F8201043F27720C0F60000276109
:101DF0008847D8F8241020688847A068B7FBF0F11E
:101E0000626801FB10702F0C1654D4E90206216998
:101E1000721C711A8142E2600CD3D9F8201043F28F
:101E20007720C0F6000026618847D8F82410206883
:101E30008847A068B6FBF0F1626801FB10602D0EC8
:101E40001754D4E902062169721C711A8142E260BA
:101E50000CD3D9F8201043F27720C0F60000266199
:101E60008847D8F8241020688847A068B6FBF0F1AE
:101E7000626801FB1060155401B0BDE8F0830000FA
:101E80002DE9F04381B004460D468EB2D4E90371CA
:101E90008068791A43F2F41943F21C287A1C8142B3
:101EA000C0F60009C0F60008E2600CD3D9F8201093
:101EB00043F27720C0F6000027618847D8F8241045
:101EC00020688847A068B7FBF0F1626801FB1070DA
:101ED000360A1554D4E9020521696A1C691A81423F
:101EE000E2600CD3D9F8201043F27720C0F600004E
:101EF00025618847D8F8241020688847A068B5FB7A
:101F0000F0F1626801FB1050165401B0BDE8F08397
:101F10002DE9F0470E78002E08BFBDE8F087044693
:101F200043F2F410C0F60000D0F8209043F21C20D9
:101F3000C0F60000D0F824A043F277284F1CC0F66A
:101F4000000808E0B5FBF0F1626801FB1050165480
:101F500017F8016B76B1D4E9020521696A1C691A88
:101F60008142E260EED340462561C8472068D047F1
:101F7000A068E7E7BDE8F08770B505460C46D5E9EF
:101F800003618068711A721C8142EA6012D343F2C5
:101F9000F410C0F60000016A43F27720C0F600009A
:101FA0002E61884743F21C20C0F60000416A286871
:101FB0008847A868B6FBF0F16A6801FB106014540A
:101FC00070BD00002DE9F04381B004460D46D4E910
:101FD00003618068711A43F2F41943F21C28721CE1
:101FE0008142C0F60009C0F60008E2600CD3D9F8BF
:101FF000201043F27720C0F6000026618847D8F809
:10200000241020688847A068B6FBF0F1626801FBE5
:1020100010602E0A1554D4E9020721697A1C791A36
:102020008142E2600CD3D9F8201043F27720C0F649
:10203000000027618847D8F8241020688847A068E6
:10204000B7FBF0F1626801FB10702F0C1654D4E955
:1020500002062169721C711A8142E2600CD3D9F820
:10206000201043F27720C0F6000026618847D8F898
:10207000241020688847A068B6FBF0F1626801FB75
:1020800010602D0E1754D4E902062169721C711AD2
:102090008142E2600CD3D9F8201043F27720C0F6D9
:1020A000000026618847D8F8241020688847A06877
:1020B000B6FBF0F1626801FB1060155401B0BDE899
:1020C000F08300002DE9F04104460D46D4E9036198
:1020D0008068711A43F2F41743F21C28721C814283
:1020E000C0F60007C0F60008E2600BD3396A43F27D
:1020F0007720C0F6000026618847D8F824102068B1
:102100008847A068B6FBF0F1626801FB10602E0AF8
:102110001554D4E9020521696A1C691A8142E260FA
:102120000BD3396A43F27720C0F600002561884757
:10213000D8F8241020688847A068B5FBF0F16268E1
:1021400001FB10501654BDE8F081000082B043F24C
:102150006C14C0F6000494E8E10040F61408C4F2E0
:1021600002088047A847B047B847206980476069A0
:102170008047A0698047E0698047206A80474FF424
:102180000050C8F804002C20C4F200004FF0FF31CA
:10219000016043F2E810C0F6000001689FED2E0ACE
:1021A000D0F80480884743F2F410C0F60000D0F85D
:1021B0000490D0F820A043F21C20C0F60000006A72
:1021C0009FED2A9A019043F25010C0F60000D0E92A
:1021D000004543F25810C0F60000466843F2641010
:1021E000C0F60000D0E9007B9FED268A40F614017E
:1021F000C4F20201086880F40050086017A0D047BC
:10220000C047BDEEC00A10EE100AC84715A0D0475F
:10221000C04720EE090ABDEEC00A10EE100AC847FA
:10222000019913A0884714A0A847C047BDEEC00A73
:1022300010EE100AA04712A0A847B0EE480AB04717
:1022400040F20000C2F20000B84740F23400C2F28F
:102250000000D847CAE700BF3333034153706565B8
:10226000643A200020727073202800000000704241
:102270002072706D290000005370656564200000B5
:102280000D0A000000007A4470B542F2D611002811
:10229000C2F200014FF00E0315D446F26765C6F294
:1022A0006665064656FB05F2941004EBD27404EB07
:1022B0008402A6EB420230320936CA54013B122E88
:1022C0002646EFD814E046F26766C6F26666054613
:1022D00055FB06F2941004EBD27404EB8402C5EBB8
:1022E000420230320935CA54013B122D2546EFD83F
:1022F0000133B0F1FF3F02DC013B2D22CA5443F20F
:102300009010C0F600004569581840F20004461EBF
:10231000C2F20004D1B22046A847B2780136002AA2
:10232000F8D170BD70B52DED028BB0EE608A00F073
:1023300083FE43F290120178C0F60002556961B144
:1023400040F20004461EC2F2000400BFC9B220469B
:10235000A847B17801360029F8D140F20000C2F256
:1023600000002021A847B0EE480A00F065FE017881
:1023700059B140F20004461EC2F20004C9B2204620
:10238000A847B17801360029F8D1BDEC028B70BDA9
:1023900070B50178002908BF70BD43F29012C0F6F5
:1023A0000002556940F20004461EC2F2000400BF5C
:1023B000C9B22046A847B17801360029F8D170BDCE
:1023C00070B5BDEEC01AB8EEC12A11EE106A30EE3B
:1023D000421A40F20004B0EEC12A2321B2EE041AE0
:1023E000C2F2000422EE012ABDEEC23A13EE100A38
:1023F000303062185070B8EE433A312901F10100D3
:1024000007D032EE432AB5EE402AF1EE10FA01462B
:10241000E8D1B5EE400A46F2676320440021F1EEB0
:1024200010FA4FF00002C6F26663417018DA00BF7E
:1024300056FB03F0811001EBD07000EB8001C6EB7E
:1024400041013031A518093685F82210132EA2F16A
:1024500001051BD30D322A460646E9D116E000BF1E
:1024600056FB03F0811001EBD07000EB8001A6EB6E
:1024700041013031A518093685F82210132EA2F13A
:10248000010503D30D322A460646E9D1B5EE400ACE
:1024900005F10F00F1EE10FA03DA013822182D21B0
:1024A000117543F29012C0F600022044556900F104
:1024B000140600BFC9B22046A84716F8011F00291C
:1024C000F8D170BD70B542F2D6110028C2F20001F9
:1024D0004FF00E0315D446F26765C6F266650646F0
:1024E00056FB05F2941004EBD27404EB8402A6EBC5
:1024F000420230320936CA54013B122E2646EFD82A
:1025000014E046F26766C6F26666054655FB06F2BB
:10251000941004EBD27404EB8402C5EB4202303217
:102520000935CA54013B122D2546EFD80133B0F1CD
:10253000FF3F02DC013B2D22CA5443F29010C0F64B
:1025400000004569581840F20004461EC2F200041B
:10255000D1B22046A847B2780136002AF8D170BD22
:1025600070B542F2D61E0028C2F2000E4FF00E03E4
:1025700016D446F26764C6F26664054655FB04F25B
:10258000911001EBD27101EB8102A5EB42023032D6
:1025900009350EF80320013B122D0D46EED816E04A
:1025A00046F2676CC6F2666C044600BF54FB0CF240
:1025B000951005EBD27505EB8502C4EB4202303273
:1025C00009340EF80320013B122C2C46EED8591C7E
:1025D000B0F1FF3F03DC01392D220EF8012043F258
:1025E0009010C0F60000436901EB0E0040F20004B9
:1025F000451EC2F2000400BFD1B220461E469847D5
:10260000AA783346002A05F10105F5D1E06848F6BD
:102610008901C8F68801A0FB011251090901A1EB4B
:102620005211A0EB81003C280CD040F20004A0F134
:102630003C05C2F2000400BF20462021B0473346CB
:102640000135F9D340F20004C2F2000420460A2109
:102650001D46984720460D212A46BDE87040104788
:10266000F0B581B02DED048BBDEEC01AB8EEC12AD5
:1026700011EE101A30EE421A40F20004B0EE608AF9
:10268000B0EEC11A2320B2EE049AC2F2000400BFD9
:1026900021EE091ABDEEC12A12EE102A303223189B
:1026A0005A70B8EE422A312800F1010207D031EE0B
:1026B000421AB5EE401AF1EE10FA1046E8D1A01811
:1026C0000022B5EE400A46F267654270F1EE10FA5C
:1026D000C6F266654FF0000218DA00BF51FB05F044
:1026E000831003EBD07303EB8300C1EB4000303069
:1026F000A618093186F822001329A2F101061CD37D
:1027000012F10D0132461946E8D116E051FB05F0F1
:10271000831003EBD07303EB8300A1EB4000303058
:10272000A618093186F822001329A2F1010604D364
:1027300012F10D0132461946E8D1B5EE400A06F114
:102740000F01F1EE10FA03DA013962182D2010752D
:1027500043F29012C0F600025269214401F11406BE
:10276000C1B220461746904716F8010F3A46002896
:10277000F6D1204620219047BDEEC80AB8EEC01A17
:1027800010EE101A38EE410AB0EEC00A232000BF46
:1027900020EE090ABDEEC01A11EE102A30322318BD
:1027A0005A70B8EE411A312800F1010207D030EE1C
:1027B000410AB5EE400AF1EE10FA1046E8D1A01831
:1027C0000022B5EE408AF1EE10FA42704FF000029E
:1027D00018DA00BF51FB05F0831003EBD07303EB55
:1027E0008300C1EB40003030A618093186F8220082
:1027F0001329A2F101061CD312F10D01324619462C
:10280000E8D116E051FB05F0831003EBD07303EB26
:102810008300A1EB40003030A618093186F8220071
:102820001329A2F1010604D312F10D013246194613
:10283000E8D1B5EE408A06F10F01F1EE10FA03DAA5
:10284000013962182D201075214401F1140500BFD3
:10285000C1B220463E46B84715F8010F0028F7D10F
:10286000E06848F68901C8F68801A0FB0112510909
:102870000901A1EB5211A0EB81003C280CD040F2E1
:102880000004A0F13C05C2F2000400BF2046202154
:10289000B04737460135F9D340F20004C2F20004D4
:1028A00020460A21B84720460D213A46BDEC048B4C
:1028B00001B0BDE8F04010472DE9F041017840F249
:1028C000000843F29015C2F20008C0F6000561B19D
:1028D0006F6940F20004461EC2F20004C9B22046ED
:1028E000B847B17801360029F8D1D8F80C0048F67D
:1028F0008901C8F68801A0FB011251090901A1EB69
:102900005211A0EB81006A693C280CD040F200040F
:10291000A0F13C05C2F20004204620211646904753
:1029200032460135F8D340F20004C2F200042046DA
:102930000A211546904720460D212A46BDE8F04160
:102940001047000070B5FFF73BFD40F20000C2F2F7
:102950000000C06848F68901C8F68801A0FB011292
:1029600051090901A1EB5211A0EB810043F2901132
:10297000C0F600014A693C280DD040F20004A0F1E5
:102980003C05C2F2000400BF2046202116469047B5
:1029900032460135F8D340F20004C2F2000420466A
:1029A0000A211546904720460D212A46BDE8704071
:1029B0001047000070B542F2D61E0028C2F2000E89
:1029C0004FF00E0316D446F26764C6F266640546FD
:1029D00055FB04F2911001EBD27101EB8102A5EBE2
:1029E0004202303209350EF80320013B122D0D460C
:1029F000EED816E046F2676CC6F2666C044600BF7D
:102A000054FB0CF2951005EBD27505EB8502C4EB77
:102A10004202303209340EF80320013B122C2C46BE
:102A2000EED8591CB0F1FF3F03DC01392D220EF81E
:102A3000012043F29010C0F60000436901EB0E0044
:102A400040F20004451EC2F2000400BFD1B220468D
:102A50001E469847AA783346002A05F10105F5D1AC
:102A6000E06848F68901C8F68801A0FB0112510907
:102A70000901A1EB5211A0EB81003C280CD040F2DF
:102A80000004A0F13C05C2F2000400BF2046202152
:102A9000B04733460135F9D340F20004C2F20004D6
:102AA00020460A211D46984720460D212A46BDE8AA
:102AB0007040104770B542F2D61E0028C2F2000ED8
:102AC0004FF00E0316D446F26764C6F266640546FC
:102AD00055FB04F2911001EBD27101EB8102A5EBE1
:102AE0004202303209350EF80320013B122D0D460B
:102AF000EED816E046F2676CC6F2666C044600BF7C
:102B000054FB0CF2951005EBD27505EB8502C4EB76
:102B10004202303209340EF80320013B122C2C46BD
:102B2000EED8591CB0F1FF3F03DC01392D220EF81D
:102B3000012043F29010C0F60000436901EB0E0043
:102B400040F20004451EC2F2000400BFD1B220468C
:102B50001E469847AA783346002A05F10105F5D1AB
:102B6000E06848F68901C8F68801A0FB0112510906
:102B70000901A1EB5211A0EB81003C280CD040F2DE
:102B80000004A0F13C05C2F2000400BF2046202151
:102B9000B04733460135F9D340F20004C2F20004D5
:102BA00020460A211D46984720460D212A46BDE8A9
:102BB000704010472DE9F041017840F2000843F2DF
:102BC0009015C2F20008C0F6000561B16F6940F2CD
:102BD0000004461EC2F20004C9B22046B847B178CC
:102BE00001360029F8D1D8F80C0048F68901C8F65A
:102BF0008801A0FB011251090901A1EB5211A0EBC0
:102C000081006A693C280CD040F20004A0F13C0528
:102C1000C2F2000420462021164690473246013574
:102C2000F8D340F20004C2F2000420460A211546FF
:102C3000904720460D212A46BDE8F041104700008C
:102C400070B542F2F611C2F200014CF6CD4201F12C
:102C50000F05CCF6CC4200BFA0FB0213DB0803EB50
:102C60008301A0EB410141F0300105F8011D092865
:102C70001846F1D843F29010C0F60000436940F2C4
:102C80000004C2F2000400BFC9B220461E469847A5
:102C900015F8011F33460029F6D1E06848F689018E
:102CA000C8F68801A0FB011251090901A1EB5211DC
:102CB000A0EB81003C280BD040F20004A0F13C05C1
:102CC000C2F2000420462021B04733460135F9D333
:102CD00040F20004C2F2000420460A211D46984733
:102CE00020460D212A46BDE87040104770B542F2DB
:102CF000F611C2F200014CF6CD4201F10F05CCF6FF
:102D0000CC4200BFA0FB0213DB0803EB8301A0EB66
:102D1000410141F0300105F8011D09281846F1D89C
:102D200043F29010C0F60000436940F20004C2F282
:102D3000000400BFC9B220461E46984715F8011F7F
:102D400033460029F6D1E06848F68901C8F68801C3
:102D5000A0FB011251090901A1EB5211A0EB810066
:102D60003C280BD040F20004A0F13C05C2F2000464
:102D700020462021B04733460135F9D340F2000404
:102D8000C2F2000420460A211D46984720460D2124
:102D90002A46BDE87040104770B542F2F611C2F203
:102DA00000014CF6CD4201F10F05CCF6CC4200BF3C
:102DB000A0FB0213DB0803EB8301A0EB410141F010
:102DC000300105F8011D09281846F1D843F290108A
:102DD000C0F60000436940F20004C2F2000400BFE4
:102DE000C9B220461E46984715F8011F33460029F0
:102DF000F6D1E06848F68901C8F68801A0FB011207
:102E000051090901A1EB5211A0EB81003C280BD024
:102E100040F20004A0F13C05C2F20004204620214B
:102E2000B04733460135F9D340F20004C2F2000442
:102E300020460A211D46984720460D212A46BDE816
:102E40007040104770B542F2D6110028C2F200015E
:102E50004FF00E0315D446F26765C6F26665064666
:102E600056FB05F2941004EBD27404EB8402A6EB3B
:102E7000420230320936CA54013B122E2646EFD8A0
:102E800014E046F26766C6F26666054655FB06F232
:102E9000941004EBD27404EB8402C5EB420230328E
:102EA0000935CA54013B122D2546EFD80133B0F144
:102EB000FF3F02DC013B2D22CA5443F29010C0F6C2
:102EC00000004569581840F20004461EC2F2000492
:102ED000D1B22046A847B2780136002AF8D170BD99
:102EE00070B50178002908BF70BD43F29012C0F69A
:102EF0000002556940F20004461EC2F2000400BF01
:102F0000C9B22046A847B17801360029F8D170BD72
:102F100070B542F2F611C2F200014CF6CD4201F159
:102F20000F05CCF6CC4200BFA0FB0213DB0803EB7D
:102F30008301A0EB410141F0300105F8011D092892
:102F40001846F1D843F29010C0F60000466940F2EE
:102F50000004C2F2000400BFC9B22046B04715F811
:102F6000011F0029F8D170BD70B542F2F611C2F20E
:102F700000014CF6CD4201F10F05CCF6CC4200BF6A
:102F8000A0FB0213DB0803EB8301A0EB410141F03E
:102F9000300105F8011D09281846F1D843F29010B8
:102FA000C0F60000466940F20004C2F2000400BF0F
:102FB000C9B22046B04715F8011F0029F8D170BDED
:102FC00070B542F2F611C2F200014CF6CD4201F1A9
:102FD0000F05CCF6CC4200BFA0FB0213DB0803EBCD
:102FE0008301A0EB410141F0300105F8011D0928E2
:102FF0001846F1D843F29010C0F60000466940F23E
:103000000004C2F2000400BFC9B22046B04715F860
:10301000011F0029F8D170BD40F2A800C2F20000E3
:1030200090ED010A7047000040F2A800C2F20000D3
:1030300080ED000A7047000010B5BDEEC01AB8EE72
:10304000C12A11EE100A30EE421A40F2000EB0EE24
:10305000C12A2322B2EE041AC2F2000E22EE012A85
:10306000BDEEC23A13EE101A30310EEB0203597066
:10307000B8EE433A312A02F1010107D032EE432A79
:10308000B5EE402AF1EE10FA0A46E7D1714400226B
:10309000B5EE400A46F2676CF1EE10FA4A704FF056
:1030A0000002C6F2666C1FDA50FB0CF18B1003EBCA
:1030B000D17101EB8103C0EB430330330EEB02040B
:1030C000093084F822301328A2F1010304D312F14D
:1030D0000D001A460846E7D103F10F01B5EE400A8C
:1030E000F1EE10FA23DA1DE050FB0CF18B1003EB2C
:1030F000D17303EB8301A0EB410130310EEB0204ED
:10310000093084F822101328A2F1010104D312F12E
:103110000D000A461846E7D10F31B5EE400AF1EE30
:1031200010FA04DA01390EEB01002D2202750EEBC4
:103130000100143010BDF1EE100A4FF6FF71C0F21D
:10314000C03120EA010040F04070E1EE100A704703
:103150006D10000809110008B1060008AD0800084C
:10316000890B0008710F0008F50F0008A104000882
:10317000E90D0008010E0008F90E000821030008FF
:1031800075040008B50A0008D90300089506000870
:1031900069130008B1120008A91200088113000881
:1031A00071130008791F0008451A0008C52000089F
:1031B000811E0008C51F0008811D0008811C000831
:1031C000911A0008111F00086518000891130008E3
:1031D000B5190008D1170008AD180008C916000875
:1031E000C1150008D913000829300008193000085B
:1031F00039110008692F0008C5240008C12F0008F4
:10320000452E0008112F000889220008C12300085C
:1032100025230008E12E000891230008ED2C00086A
:10322000B5290008992D0008B52A0008412C00088E
:10323000612500084529000861260008B52B000813
:10324000B928000800000000AB0E0000BE0A000014
:10325000BA0E0000EA0B0000EB0A0000AE0B000003
:10326000000000005072696E74004552524F523A8D
:10327000207265616420004552524F523A207772A5
:103280006974652000426C7565746F6F7468000026
:10329000B0320008000000204800000000020008D2
:1032A000F832000848000020C02700001C02000877
:1032B00064320008D6010020002000000000000059
:1032C00000000000000000000000000000000000FE
:1032D0000000002E000000000000000000000000C0
:1032E0000000000085320008BC0000200001000042
:0832F0000000000000000000D6
:04000005080001C529
:00000001FF
